{
  "abi": [
    {
      "inputs": [
        {
          "internalType": "string",
          "name": "_name",
          "type": "string"
        },
        {
          "internalType": "string",
          "name": "_symbol",
          "type": "string"
        },
        {
          "internalType": "uint256",
          "name": "_decimals",
          "type": "uint256"
        }
      ],
      "stateMutability": "nonpayable",
      "type": "constructor"
    },
    {
      "inputs": [
        {
          "internalType": "address",
          "name": "account",
          "type": "address"
        }
      ],
      "name": "balanceOf",
      "outputs": [
        {
          "internalType": "uint256",
          "name": "",
          "type": "uint256"
        }
      ],
      "stateMutability": "view",
      "type": "function"
    },
    {
      "inputs": [],
      "name": "decimals",
      "outputs": [
        {
          "internalType": "uint256",
          "name": "",
          "type": "uint256"
        }
      ],
      "stateMutability": "view",
      "type": "function"
    },
    {
      "inputs": [
        {
          "internalType": "uint256",
          "name": "amount",
          "type": "uint256"
        }
      ],
      "name": "mint",
      "outputs": [],
      "stateMutability": "nonpayable",
      "type": "function"
    },
    {
      "inputs": [],
      "name": "name",
      "outputs": [
        {
          "internalType": "string",
          "name": "",
          "type": "string"
        }
      ],
      "stateMutability": "view",
      "type": "function"
    },
    {
      "inputs": [],
      "name": "symbol",
      "outputs": [
        {
          "internalType": "string",
          "name": "",
          "type": "string"
        }
      ],
      "stateMutability": "view",
      "type": "function"
    },
    {
      "inputs": [],
      "name": "totalSupply",
      "outputs": [
        {
          "internalType": "uint256",
          "name": "",
          "type": "uint256"
        }
      ],
      "stateMutability": "view",
      "type": "function"
    },
    {
      "inputs": [
        {
          "internalType": "address",
          "name": "to",
          "type": "address"
        },
        {
          "internalType": "uint256",
          "name": "amount",
          "type": "uint256"
        }
      ],
      "name": "transfer",
      "outputs": [
        {
          "internalType": "bool",
          "name": "",
          "type": "bool"
        }
      ],
      "stateMutability": "nonpayable",
      "type": "function"
    },
    {
      "inputs": [
        {
          "internalType": "address",
          "name": "from",
          "type": "address"
        },
        {
          "internalType": "address",
          "name": "to",
          "type": "address"
        },
        {
          "internalType": "uint256",
          "name": "amount",
          "type": "uint256"
        }
      ],
      "name": "transferFrom",
      "outputs": [
        {
          "internalType": "bool",
          "name": "",
          "type": "bool"
        }
      ],
      "stateMutability": "nonpayable",
      "type": "function"
    }
  ],
  "bytecode": "608060405234801561001057600080fd5b5060405161077f38038061077f83398101604081905261002f916101bd565b8251610042906002906020860190610062565b508151610056906003906020850190610062565b50600455506102649050565b82805461006e90610229565b90600052602060002090601f01602090048101928261009057600085556100d6565b82601f106100a957805160ff19168380011785556100d6565b828001600101855582156100d6579182015b828111156100d65782518255916020019190600101906100bb565b506100e29291506100e6565b5090565b5b808211156100e257600081556001016100e7565b634e487b7160e01b600052604160045260246000fd5b600082601f83011261012257600080fd5b81516001600160401b038082111561013c5761013c6100fb565b604051601f8301601f19908116603f01168101908282118183101715610164576101646100fb565b8160405283815260209250868385880101111561018057600080fd5b600091505b838210156101a25785820183015181830184015290820190610185565b838211156101b35760008385830101525b9695505050505050565b6000806000606084860312156101d257600080fd5b83516001600160401b03808211156101e957600080fd5b6101f587838801610111565b9450602086015191508082111561020b57600080fd5b5061021886828701610111565b925050604084015190509250925092565b600181811c9082168061023d57607f821691505b6020821081141561025e57634e487b7160e01b600052602260045260246000fd5b50919050565b61050c806102736000396000f3fe608060405234801561001057600080fd5b50600436106100885760003560e01c806370a082311161005b57806370a08231146100ee57806395d89b4114610117578063a0712d681461011f578063a9059cbb1461013457600080fd5b806306fdde031461008d57806318160ddd146100ab57806323b872dd146100c2578063313ce567146100e5575b600080fd5b610095610147565b6040516100a29190610344565b60405180910390f35b6100b460055481565b6040519081526020016100a2565b6100d56100d03660046103b5565b6101d5565b60405190151581526020016100a2565b6100b460045481565b6100b46100fc3660046103f1565b6001600160a01b031660009081526001602052604090205490565b610095610223565b61013261012d366004610413565b610230565b005b6100d561014236600461042c565b610270565b6002805461015490610456565b80601f016020809104026020016040519081016040528092919081815260200182805461018090610456565b80156101cd5780601f106101a2576101008083540402835291602001916101cd565b820191906000526020600020905b8154815290600101906020018083116101b057829003601f168201915b505050505081565b6001600160a01b0383166000908152602081815260408083203384529091528120805483919083906102089084906104a7565b909155506102199050848484610286565b5060019392505050565b6003805461015490610456565b336000908152600160205260408120805483929061024f9084906104be565b92505081905550806005600082825461026891906104be565b909155505050565b600061027d338484610286565b50600192915050565b6001600160a01b038316600090815260016020526040902054818110156103025760405162461bcd60e51b815260206004820152602660248201527f45524332303a207472616e7366657220616d6f756e7420657863656564732062604482015265616c616e636560d01b606482015260840160405180910390fd5b6001600160a01b038085166000908152600160205260408082208585039055918516815290812080548492906103399084906104be565b909155505050505050565b600060208083528351808285015260005b8181101561037157858101830151858201604001528201610355565b81811115610383576000604083870101525b50601f01601f1916929092016040019392505050565b80356001600160a01b03811681146103b057600080fd5b919050565b6000806000606084860312156103ca57600080fd5b6103d384610399565b92506103e160208501610399565b9150604084013590509250925092565b60006020828403121561040357600080fd5b61040c82610399565b9392505050565b60006020828403121561042557600080fd5b5035919050565b6000806040838503121561043f57600080fd5b61044883610399565b946020939093013593505050565b600181811c9082168061046a57607f821691505b6020821081141561048b57634e487b7160e01b600052602260045260246000fd5b50919050565b634e487b7160e01b600052601160045260246000fd5b6000828210156104b9576104b9610491565b500390565b600082198211156104d1576104d1610491565b50019056fea26469706673582212205cd3c83feecebf427e7dbbe06db5841173270bc08dc1430966d0d668d9a57d3c64736f6c634300080b0033",
  "bytecodeSha1": "7476cff3d07a79eab0bb248abbd9fe228c1dca15",
  "compiler": {
    "evm_version": "istanbul",
    "optimizer": {
      "enabled": true,
      "runs": 200
    },
    "version": "0.8.11+commit.d7f03943"
  },
  "contractName": "ERC20",
  "language": "Solidity",
  "natspec": {
    "kind": "dev",
    "methods": {},
    "version": 1
  },
  "opcodes": "PUSH1 0x80 PUSH1 0x40 MSTORE CALLVALUE DUP1 ISZERO PUSH2 0x10 JUMPI PUSH1 0x0 DUP1 REVERT JUMPDEST POP PUSH1 0x4 CALLDATASIZE LT PUSH2 0x88 JUMPI PUSH1 0x0 CALLDATALOAD PUSH1 0xE0 SHR DUP1 PUSH4 0x70A08231 GT PUSH2 0x5B JUMPI DUP1 PUSH4 0x70A08231 EQ PUSH2 0xEE JUMPI DUP1 PUSH4 0x95D89B41 EQ PUSH2 0x117 JUMPI DUP1 PUSH4 0xA0712D68 EQ PUSH2 0x11F JUMPI DUP1 PUSH4 0xA9059CBB EQ PUSH2 0x134 JUMPI PUSH1 0x0 DUP1 REVERT JUMPDEST DUP1 PUSH4 0x6FDDE03 EQ PUSH2 0x8D JUMPI DUP1 PUSH4 0x18160DDD EQ PUSH2 0xAB JUMPI DUP1 PUSH4 0x23B872DD EQ PUSH2 0xC2 JUMPI DUP1 PUSH4 0x313CE567 EQ PUSH2 0xE5 JUMPI JUMPDEST PUSH1 0x0 DUP1 REVERT JUMPDEST PUSH2 0x95 PUSH2 0x147 JUMP JUMPDEST PUSH1 0x40 MLOAD PUSH2 0xA2 SWAP2 SWAP1 PUSH2 0x344 JUMP JUMPDEST PUSH1 0x40 MLOAD DUP1 SWAP2 SUB SWAP1 RETURN JUMPDEST PUSH2 0xB4 PUSH1 0x5 SLOAD DUP2 JUMP JUMPDEST PUSH1 0x40 MLOAD SWAP1 DUP2 MSTORE PUSH1 0x20 ADD PUSH2 0xA2 JUMP JUMPDEST PUSH2 0xD5 PUSH2 0xD0 CALLDATASIZE PUSH1 0x4 PUSH2 0x3B5 JUMP JUMPDEST PUSH2 0x1D5 JUMP JUMPDEST PUSH1 0x40 MLOAD SWAP1 ISZERO ISZERO DUP2 MSTORE PUSH1 0x20 ADD PUSH2 0xA2 JUMP JUMPDEST PUSH2 0xB4 PUSH1 0x4 SLOAD DUP2 JUMP JUMPDEST PUSH2 0xB4 PUSH2 0xFC CALLDATASIZE PUSH1 0x4 PUSH2 0x3F1 JUMP JUMPDEST PUSH1 0x1 PUSH1 0x1 PUSH1 0xA0 SHL SUB AND PUSH1 0x0 SWAP1 DUP2 MSTORE PUSH1 0x1 PUSH1 0x20 MSTORE PUSH1 0x40 SWAP1 KECCAK256 SLOAD SWAP1 JUMP JUMPDEST PUSH2 0x95 PUSH2 0x223 JUMP JUMPDEST PUSH2 0x132 PUSH2 0x12D CALLDATASIZE PUSH1 0x4 PUSH2 0x413 JUMP JUMPDEST PUSH2 0x230 JUMP JUMPDEST STOP JUMPDEST PUSH2 0xD5 PUSH2 0x142 CALLDATASIZE PUSH1 0x4 PUSH2 0x42C JUMP JUMPDEST PUSH2 0x270 JUMP JUMPDEST PUSH1 0x2 DUP1 SLOAD PUSH2 0x154 SWAP1 PUSH2 0x456 JUMP JUMPDEST DUP1 PUSH1 0x1F ADD PUSH1 0x20 DUP1 SWAP2 DIV MUL PUSH1 0x20 ADD PUSH1 0x40 MLOAD SWAP1 DUP2 ADD PUSH1 0x40 MSTORE DUP1 SWAP3 SWAP2 SWAP1 DUP2 DUP2 MSTORE PUSH1 0x20 ADD DUP3 DUP1 SLOAD PUSH2 0x180 SWAP1 PUSH2 0x456 JUMP JUMPDEST DUP1 ISZERO PUSH2 0x1CD JUMPI DUP1 PUSH1 0x1F LT PUSH2 0x1A2 JUMPI PUSH2 0x100 DUP1 DUP4 SLOAD DIV MUL DUP4 MSTORE SWAP2 PUSH1 0x20 ADD SWAP2 PUSH2 0x1CD JUMP JUMPDEST DUP3 ADD SWAP2 SWAP1 PUSH1 0x0 MSTORE PUSH1 0x20 PUSH1 0x0 KECCAK256 SWAP1 JUMPDEST DUP2 SLOAD DUP2 MSTORE SWAP1 PUSH1 0x1 ADD SWAP1 PUSH1 0x20 ADD DUP1 DUP4 GT PUSH2 0x1B0 JUMPI DUP3 SWAP1 SUB PUSH1 0x1F AND DUP3 ADD SWAP2 JUMPDEST POP POP POP POP POP DUP2 JUMP JUMPDEST PUSH1 0x1 PUSH1 0x1 PUSH1 0xA0 SHL SUB DUP4 AND PUSH1 0x0 SWAP1 DUP2 MSTORE PUSH1 0x20 DUP2 DUP2 MSTORE PUSH1 0x40 DUP1 DUP4 KECCAK256 CALLER DUP5 MSTORE SWAP1 SWAP2 MSTORE DUP2 KECCAK256 DUP1 SLOAD DUP4 SWAP2 SWAP1 DUP4 SWAP1 PUSH2 0x208 SWAP1 DUP5 SWAP1 PUSH2 0x4A7 JUMP JUMPDEST SWAP1 SWAP2 SSTORE POP PUSH2 0x219 SWAP1 POP DUP5 DUP5 DUP5 PUSH2 0x286 JUMP JUMPDEST POP PUSH1 0x1 SWAP4 SWAP3 POP POP POP JUMP JUMPDEST PUSH1 0x3 DUP1 SLOAD PUSH2 0x154 SWAP1 PUSH2 0x456 JUMP JUMPDEST CALLER PUSH1 0x0 SWAP1 DUP2 MSTORE PUSH1 0x1 PUSH1 0x20 MSTORE PUSH1 0x40 DUP2 KECCAK256 DUP1 SLOAD DUP4 SWAP3 SWAP1 PUSH2 0x24F SWAP1 DUP5 SWAP1 PUSH2 0x4BE JUMP JUMPDEST SWAP3 POP POP DUP2 SWAP1 SSTORE POP DUP1 PUSH1 0x5 PUSH1 0x0 DUP3 DUP3 SLOAD PUSH2 0x268 SWAP2 SWAP1 PUSH2 0x4BE JUMP JUMPDEST SWAP1 SWAP2 SSTORE POP POP POP JUMP JUMPDEST PUSH1 0x0 PUSH2 0x27D CALLER DUP5 DUP5 PUSH2 0x286 JUMP JUMPDEST POP PUSH1 0x1 SWAP3 SWAP2 POP POP JUMP JUMPDEST PUSH1 0x1 PUSH1 0x1 PUSH1 0xA0 SHL SUB DUP4 AND PUSH1 0x0 SWAP1 DUP2 MSTORE PUSH1 0x1 PUSH1 0x20 MSTORE PUSH1 0x40 SWAP1 KECCAK256 SLOAD DUP2 DUP2 LT ISZERO PUSH2 0x302 JUMPI PUSH1 0x40 MLOAD PUSH3 0x461BCD PUSH1 0xE5 SHL DUP2 MSTORE PUSH1 0x20 PUSH1 0x4 DUP3 ADD MSTORE PUSH1 0x26 PUSH1 0x24 DUP3 ADD MSTORE PUSH32 0x45524332303A207472616E7366657220616D6F756E7420657863656564732062 PUSH1 0x44 DUP3 ADD MSTORE PUSH6 0x616C616E6365 PUSH1 0xD0 SHL PUSH1 0x64 DUP3 ADD MSTORE PUSH1 0x84 ADD PUSH1 0x40 MLOAD DUP1 SWAP2 SUB SWAP1 REVERT JUMPDEST PUSH1 0x1 PUSH1 0x1 PUSH1 0xA0 SHL SUB DUP1 DUP6 AND PUSH1 0x0 SWAP1 DUP2 MSTORE PUSH1 0x1 PUSH1 0x20 MSTORE PUSH1 0x40 DUP1 DUP3 KECCAK256 DUP6 DUP6 SUB SWAP1 SSTORE SWAP2 DUP6 AND DUP2 MSTORE SWAP1 DUP2 KECCAK256 DUP1 SLOAD DUP5 SWAP3 SWAP1 PUSH2 0x339 SWAP1 DUP5 SWAP1 PUSH2 0x4BE JUMP JUMPDEST SWAP1 SWAP2 SSTORE POP POP POP POP POP POP JUMP JUMPDEST PUSH1 0x0 PUSH1 0x20 DUP1 DUP4 MSTORE DUP4 MLOAD DUP1 DUP3 DUP6 ADD MSTORE PUSH1 0x0 JUMPDEST DUP2 DUP2 LT ISZERO PUSH2 0x371 JUMPI DUP6 DUP2 ADD DUP4 ADD MLOAD DUP6 DUP3 ADD PUSH1 0x40 ADD MSTORE DUP3 ADD PUSH2 0x355 JUMP JUMPDEST DUP2 DUP2 GT ISZERO PUSH2 0x383 JUMPI PUSH1 0x0 PUSH1 0x40 DUP4 DUP8 ADD ADD MSTORE JUMPDEST POP PUSH1 0x1F ADD PUSH1 0x1F NOT AND SWAP3 SWAP1 SWAP3 ADD PUSH1 0x40 ADD SWAP4 SWAP3 POP POP POP JUMP JUMPDEST DUP1 CALLDATALOAD PUSH1 0x1 PUSH1 0x1 PUSH1 0xA0 SHL SUB DUP2 AND DUP2 EQ PUSH2 0x3B0 JUMPI PUSH1 0x0 DUP1 REVERT JUMPDEST SWAP2 SWAP1 POP JUMP JUMPDEST PUSH1 0x0 DUP1 PUSH1 0x0 PUSH1 0x60 DUP5 DUP7 SUB SLT ISZERO PUSH2 0x3CA JUMPI PUSH1 0x0 DUP1 REVERT JUMPDEST PUSH2 0x3D3 DUP5 PUSH2 0x399 JUMP JUMPDEST SWAP3 POP PUSH2 0x3E1 PUSH1 0x20 DUP6 ADD PUSH2 0x399 JUMP JUMPDEST SWAP2 POP PUSH1 0x40 DUP5 ADD CALLDATALOAD SWAP1 POP SWAP3 POP SWAP3 POP SWAP3 JUMP JUMPDEST PUSH1 0x0 PUSH1 0x20 DUP3 DUP5 SUB SLT ISZERO PUSH2 0x403 JUMPI PUSH1 0x0 DUP1 REVERT JUMPDEST PUSH2 0x40C DUP3 PUSH2 0x399 JUMP JUMPDEST SWAP4 SWAP3 POP POP POP JUMP JUMPDEST PUSH1 0x0 PUSH1 0x20 DUP3 DUP5 SUB SLT ISZERO PUSH2 0x425 JUMPI PUSH1 0x0 DUP1 REVERT JUMPDEST POP CALLDATALOAD SWAP2 SWAP1 POP JUMP JUMPDEST PUSH1 0x0 DUP1 PUSH1 0x40 DUP4 DUP6 SUB SLT ISZERO PUSH2 0x43F JUMPI PUSH1 0x0 DUP1 REVERT JUMPDEST PUSH2 0x448 DUP4 PUSH2 0x399 JUMP JUMPDEST SWAP5 PUSH1 0x20 SWAP4 SWAP1 SWAP4 ADD CALLDATALOAD SWAP4 POP POP POP JUMP JUMPDEST PUSH1 0x1 DUP2 DUP2 SHR SWAP1 DUP3 AND DUP1 PUSH2 0x46A JUMPI PUSH1 0x7F DUP3 AND SWAP2 POP JUMPDEST PUSH1 0x20 DUP3 LT DUP2 EQ ISZERO PUSH2 0x48B JUMPI PUSH4 0x4E487B71 PUSH1 0xE0 SHL PUSH1 0x0 MSTORE PUSH1 0x22 PUSH1 0x4 MSTORE PUSH1 0x24 PUSH1 0x0 REVERT JUMPDEST POP SWAP2 SWAP1 POP JUMP JUMPDEST PUSH4 0x4E487B71 PUSH1 0xE0 SHL PUSH1 0x0 MSTORE PUSH1 0x11 PUSH1 0x4 MSTORE PUSH1 0x24 PUSH1 0x0 REVERT JUMPDEST PUSH1 0x0 DUP3 DUP3 LT ISZERO PUSH2 0x4B9 JUMPI PUSH2 0x4B9 PUSH2 0x491 JUMP JUMPDEST POP SUB SWAP1 JUMP JUMPDEST PUSH1 0x0 DUP3 NOT DUP3 GT ISZERO PUSH2 0x4D1 JUMPI PUSH2 0x4D1 PUSH2 0x491 JUMP JUMPDEST POP ADD SWAP1 JUMP INVALID LOG2 PUSH5 0x6970667358 0x22 SLT KECCAK256 0x5C 0xD3 0xC8 EXTCODEHASH 0xEE 0xCE 0xBF TIMESTAMP PUSH31 0x7DBBE06DB5841173270BC08DC1430966D0D668D9A57D3C64736F6C63430008 SIGNEXTEND STOP CALLER ",
  "sha1": "b7a0a14abe07194af3891c1e32f52d1ce0adf1e6",
  "source": "// SPDX-License-Identifier: MIT\npragma solidity 0.8.11;\n\n// Minimal implementation of an ERC20 only for the purpose of this technical assignment\ncontract ERC20 {\n    // Storage variables\n    mapping(address => mapping(address => uint256)) private _allowances;\n    mapping(address => uint256) private _balances;\n\n    string public name;\n    string public symbol;\n\n    uint256 public decimals;\n    uint256 public totalSupply;\n\n    constructor(\n        string memory _name,\n        string memory _symbol,\n        uint256 _decimals\n    ) {\n        name = _name;\n        symbol = _symbol;\n        decimals = _decimals;\n    }\n\n    // NOTE: For the purposes of this technical assignment anyone can mint the tokens\n    function mint(uint256 amount) public {\n        _balances[msg.sender] += amount;\n        totalSupply += amount;\n    }\n\n    function balanceOf(address account) external view returns (uint256) {\n        return _balances[account];\n    }\n\n    function transfer(address to, uint256 amount) external returns (bool) {\n        _transfer(msg.sender, to, amount);\n        return true;\n    }\n\n    function transferFrom(\n        address from,\n        address to,\n        uint256 amount\n    ) external returns (bool) {\n        // spend the allowance\n        _allowances[from][msg.sender] -= amount;\n        _transfer(from, to, amount);\n        return true;\n    }\n\n    function _transfer(\n        address from,\n        address to,\n        uint256 amount\n    ) internal {\n        uint256 _fromBalance = _balances[from];\n        require(\n            _fromBalance >= amount,\n            \"ERC20: transfer amount exceeds balance\"\n        );\n        unchecked {\n            _balances[from] = _fromBalance - amount;\n        }\n        _balances[to] += amount;\n    }\n}\n",
  "sourcePath": "contracts/ERC20.sol",
  "type": "contract"
}