{
  "abi": [
    {
      "inputs": [],
      "name": "RecipientAddressNotValid",
      "type": "error"
    },
    {
      "inputs": [],
      "name": "RedeemerNotAuthorized",
      "type": "error"
    },
    {
      "anonymous": false,
      "inputs": [
        {
          "indexed": true,
          "internalType": "uint256",
          "name": "_scheduleId",
          "type": "uint256"
        },
        {
          "indexed": false,
          "internalType": "address",
          "name": "_beneficiery",
          "type": "address"
        },
        {
          "indexed": false,
          "internalType": "uint256",
          "name": "_amount",
          "type": "uint256"
        }
      ],
      "name": "BeneficieryRedeemedTokens",
      "type": "event"
    },
    {
      "anonymous": false,
      "inputs": [
        {
          "indexed": true,
          "internalType": "address",
          "name": "_tokenAddress",
          "type": "address"
        },
        {
          "indexed": false,
          "internalType": "address",
          "name": "_beneficiery",
          "type": "address"
        },
        {
          "indexed": false,
          "internalType": "uint256",
          "name": "_amount",
          "type": "uint256"
        },
        {
          "indexed": false,
          "internalType": "uint256",
          "name": "_duration",
          "type": "uint256"
        },
        {
          "indexed": false,
          "internalType": "uint256",
          "name": "_scheduleId",
          "type": "uint256"
        }
      ],
      "name": "NewVestingScheduleCreated",
      "type": "event"
    },
    {
      "inputs": [
        {
          "internalType": "address",
          "name": "tokenAddress",
          "type": "address"
        },
        {
          "internalType": "address",
          "name": "to",
          "type": "address"
        },
        {
          "internalType": "uint256",
          "name": "amount",
          "type": "uint256"
        },
        {
          "internalType": "uint256",
          "name": "duration",
          "type": "uint256"
        }
      ],
      "name": "mint",
      "outputs": [
        {
          "internalType": "uint256",
          "name": "",
          "type": "uint256"
        }
      ],
      "stateMutability": "nonpayable",
      "type": "function"
    },
    {
      "inputs": [
        {
          "internalType": "uint256",
          "name": "_scheduleId",
          "type": "uint256"
        }
      ],
      "name": "redeem",
      "outputs": [],
      "stateMutability": "nonpayable",
      "type": "function"
    },
    {
      "inputs": [],
      "name": "scheduleId",
      "outputs": [
        {
          "internalType": "uint256",
          "name": "",
          "type": "uint256"
        }
      ],
      "stateMutability": "view",
      "type": "function"
    }
  ],
  "bytecode": "608060405234801561001057600080fd5b506106e9806100206000396000f3fe608060405234801561001057600080fd5b50600436106100415760003560e01c806328c802cd14610046578063b3f1c93d14610061578063db006a7514610074575b600080fd5b61004f60015481565b60405190815260200160405180910390f35b61004f61006f366004610509565b610089565b61008761008236600461054b565b6101d7565b005b60006001600160a01b0384166100b257604051636f5d477760e11b815260040160405180910390fd5b600180546040805160c0810182526001600160a01b0380891682526001600160601b0342811660208085019182528c84168587018181528b8516606088019081526001600160801b03808f1660808a01908152600060a08b018181528d8252968190528b9020995196518816600160a01b908102978a16979097178a5592519151909616909402939095169290921797850197909755915195518116600160801b02951694909417600290910155519091907fa1a3bbc1e35a37ae74a146cd15a09674ea28822ef87d06809d50ec93f5d85f3e906101b89088908890889087906001600160a01b0394909416845260208401929092526040830152606082015260800190565b60405180910390a26101cb81600161057a565b60015595945050505050565b60008181526020818152604091829020825160c08101845281546001600160a01b038082168084526001600160601b03600160a01b93849004811696850196909652600185015491821696840196909652049092166060830152600201546001600160801b038082166080840152600160801b9091041660a082015290331461027357604051638cf9aecf60e01b815260040160405180910390fd5b6000816060015182602001516102899190610592565b6001600160601b0316426001600160601b03161061034b578160a0015182608001516102b591906105bd565b60808301516001600160801b0390811660a0850152604080850151905163a9059cbb60e01b815233600482015291831660248301529192506001600160a01b039091169063a9059cbb906044016020604051808303816000875af1158015610321573d6000803e3d6000fd5b505050506040513d601f19601f8201168201806040525081019061034591906105e5565b50610435565b8160a0015182606001516001600160601b031683602001514261036e919061060e565b6001600160601b03168460800151610386919061062e565b610390919061065d565b61039a91906105bd565b9050808260a0018181516103ae9190610691565b6001600160801b03908116909152604084810151905163a9059cbb60e01b815233600482015291841660248301526001600160a01b0316915063a9059cbb906044016020604051808303816000875af115801561040f573d6000803e3d6000fd5b505050506040513d601f19601f8201168201806040525081019061043391906105e5565b505b600083815260208181526040918290208451858301516001600160601b03908116600160a01b9081026001600160a01b03938416178455878601516060890151909216029116176001820155608085015160a08601516001600160801b03908116600160801b029181169190911760029092019190915582513381529084169181019190915284917f241657ca70612f8c4d001ff61800abe5a5fe5bf018509e5faf24401e717e27a6910160405180910390a2505050565b80356001600160a01b038116811461050457600080fd5b919050565b6000806000806080858703121561051f57600080fd5b610528856104ed565b9350610536602086016104ed565b93969395505050506040820135916060013590565b60006020828403121561055d57600080fd5b5035919050565b634e487b7160e01b600052601160045260246000fd5b6000821982111561058d5761058d610564565b500190565b60006001600160601b038083168185168083038211156105b4576105b4610564565b01949350505050565b60006001600160801b03838116908316818110156105dd576105dd610564565b039392505050565b6000602082840312156105f757600080fd5b8151801515811461060757600080fd5b9392505050565b60006001600160601b03838116908316818110156105dd576105dd610564565b60006001600160801b038083168185168183048111821515161561065457610654610564565b02949350505050565b60006001600160801b038084168061068557634e487b7160e01b600052601260045260246000fd5b92169190910492915050565b60006001600160801b038083168185168083038211156105b4576105b461056456fea2646970667358221220d1142960ed1172e78e92378796d9891e7e962895065ac691e4ca41144844d2be64736f6c634300080b0033",
  "bytecodeSha1": "a1538078cf08a650b0dd6729bd14f4f366ae616e",
  "compiler": {
    "evm_version": "istanbul",
    "optimizer": {
      "enabled": true,
      "runs": 200
    },
    "version": "0.8.11+commit.d7f03943"
  },
  "contractName": "LinearVestingToken",
  "language": "Solidity",
  "natspec": {
    "kind": "dev",
    "methods": {
      "mint(address,address,uint256,uint256)": {
        "notice": "function to create a linear vesting schedule",
        "params": {
          "amount": "The total amount of tokens to be vested",
          "duration": "The total duration of the vesting schedule",
          "to": "The beneficiery of the vested tokens",
          "tokenAddress": "The address of the token to be vesting,e.g., DAI"
        },
        "returns": {
          "_0": "scheduleId The unique Id of a vesting schedule"
        }
      }
    },
    "version": 1
  },
  "opcodes": "PUSH1 0x80 PUSH1 0x40 MSTORE CALLVALUE DUP1 ISZERO PUSH2 0x10 JUMPI PUSH1 0x0 DUP1 REVERT JUMPDEST POP PUSH1 0x4 CALLDATASIZE LT PUSH2 0x41 JUMPI PUSH1 0x0 CALLDATALOAD PUSH1 0xE0 SHR DUP1 PUSH4 0x28C802CD EQ PUSH2 0x46 JUMPI DUP1 PUSH4 0xB3F1C93D EQ PUSH2 0x61 JUMPI DUP1 PUSH4 0xDB006A75 EQ PUSH2 0x74 JUMPI JUMPDEST PUSH1 0x0 DUP1 REVERT JUMPDEST PUSH2 0x4F PUSH1 0x1 SLOAD DUP2 JUMP JUMPDEST PUSH1 0x40 MLOAD SWAP1 DUP2 MSTORE PUSH1 0x20 ADD PUSH1 0x40 MLOAD DUP1 SWAP2 SUB SWAP1 RETURN JUMPDEST PUSH2 0x4F PUSH2 0x6F CALLDATASIZE PUSH1 0x4 PUSH2 0x509 JUMP JUMPDEST PUSH2 0x89 JUMP JUMPDEST PUSH2 0x87 PUSH2 0x82 CALLDATASIZE PUSH1 0x4 PUSH2 0x54B JUMP JUMPDEST PUSH2 0x1D7 JUMP JUMPDEST STOP JUMPDEST PUSH1 0x0 PUSH1 0x1 PUSH1 0x1 PUSH1 0xA0 SHL SUB DUP5 AND PUSH2 0xB2 JUMPI PUSH1 0x40 MLOAD PUSH4 0x6F5D4777 PUSH1 0xE1 SHL DUP2 MSTORE PUSH1 0x4 ADD PUSH1 0x40 MLOAD DUP1 SWAP2 SUB SWAP1 REVERT JUMPDEST PUSH1 0x1 DUP1 SLOAD PUSH1 0x40 DUP1 MLOAD PUSH1 0xC0 DUP2 ADD DUP3 MSTORE PUSH1 0x1 PUSH1 0x1 PUSH1 0xA0 SHL SUB DUP1 DUP10 AND DUP3 MSTORE PUSH1 0x1 PUSH1 0x1 PUSH1 0x60 SHL SUB TIMESTAMP DUP2 AND PUSH1 0x20 DUP1 DUP6 ADD SWAP2 DUP3 MSTORE DUP13 DUP5 AND DUP6 DUP8 ADD DUP2 DUP2 MSTORE DUP12 DUP6 AND PUSH1 0x60 DUP9 ADD SWAP1 DUP2 MSTORE PUSH1 0x1 PUSH1 0x1 PUSH1 0x80 SHL SUB DUP1 DUP16 AND PUSH1 0x80 DUP11 ADD SWAP1 DUP2 MSTORE PUSH1 0x0 PUSH1 0xA0 DUP12 ADD DUP2 DUP2 MSTORE DUP14 DUP3 MSTORE SWAP7 DUP2 SWAP1 MSTORE DUP12 SWAP1 KECCAK256 SWAP10 MLOAD SWAP7 MLOAD DUP9 AND PUSH1 0x1 PUSH1 0xA0 SHL SWAP1 DUP2 MUL SWAP8 DUP11 AND SWAP8 SWAP1 SWAP8 OR DUP11 SSTORE SWAP3 MLOAD SWAP2 MLOAD SWAP1 SWAP7 AND SWAP1 SWAP5 MUL SWAP4 SWAP1 SWAP6 AND SWAP3 SWAP1 SWAP3 OR SWAP8 DUP6 ADD SWAP8 SWAP1 SWAP8 SSTORE SWAP2 MLOAD SWAP6 MLOAD DUP2 AND PUSH1 0x1 PUSH1 0x80 SHL MUL SWAP6 AND SWAP5 SWAP1 SWAP5 OR PUSH1 0x2 SWAP1 SWAP2 ADD SSTORE MLOAD SWAP1 SWAP2 SWAP1 PUSH32 0xA1A3BBC1E35A37AE74A146CD15A09674EA28822EF87D06809D50EC93F5D85F3E SWAP1 PUSH2 0x1B8 SWAP1 DUP9 SWAP1 DUP9 SWAP1 DUP9 SWAP1 DUP8 SWAP1 PUSH1 0x1 PUSH1 0x1 PUSH1 0xA0 SHL SUB SWAP5 SWAP1 SWAP5 AND DUP5 MSTORE PUSH1 0x20 DUP5 ADD SWAP3 SWAP1 SWAP3 MSTORE PUSH1 0x40 DUP4 ADD MSTORE PUSH1 0x60 DUP3 ADD MSTORE PUSH1 0x80 ADD SWAP1 JUMP JUMPDEST PUSH1 0x40 MLOAD DUP1 SWAP2 SUB SWAP1 LOG2 PUSH2 0x1CB DUP2 PUSH1 0x1 PUSH2 0x57A JUMP JUMPDEST PUSH1 0x1 SSTORE SWAP6 SWAP5 POP POP POP POP POP JUMP JUMPDEST PUSH1 0x0 DUP2 DUP2 MSTORE PUSH1 0x20 DUP2 DUP2 MSTORE PUSH1 0x40 SWAP2 DUP3 SWAP1 KECCAK256 DUP3 MLOAD PUSH1 0xC0 DUP2 ADD DUP5 MSTORE DUP2 SLOAD PUSH1 0x1 PUSH1 0x1 PUSH1 0xA0 SHL SUB DUP1 DUP3 AND DUP1 DUP5 MSTORE PUSH1 0x1 PUSH1 0x1 PUSH1 0x60 SHL SUB PUSH1 0x1 PUSH1 0xA0 SHL SWAP4 DUP5 SWAP1 DIV DUP2 AND SWAP7 DUP6 ADD SWAP7 SWAP1 SWAP7 MSTORE PUSH1 0x1 DUP6 ADD SLOAD SWAP2 DUP3 AND SWAP7 DUP5 ADD SWAP7 SWAP1 SWAP7 MSTORE DIV SWAP1 SWAP3 AND PUSH1 0x60 DUP4 ADD MSTORE PUSH1 0x2 ADD SLOAD PUSH1 0x1 PUSH1 0x1 PUSH1 0x80 SHL SUB DUP1 DUP3 AND PUSH1 0x80 DUP5 ADD MSTORE PUSH1 0x1 PUSH1 0x80 SHL SWAP1 SWAP2 DIV AND PUSH1 0xA0 DUP3 ADD MSTORE SWAP1 CALLER EQ PUSH2 0x273 JUMPI PUSH1 0x40 MLOAD PUSH4 0x8CF9AECF PUSH1 0xE0 SHL DUP2 MSTORE PUSH1 0x4 ADD PUSH1 0x40 MLOAD DUP1 SWAP2 SUB SWAP1 REVERT JUMPDEST PUSH1 0x0 DUP2 PUSH1 0x60 ADD MLOAD DUP3 PUSH1 0x20 ADD MLOAD PUSH2 0x289 SWAP2 SWAP1 PUSH2 0x592 JUMP JUMPDEST PUSH1 0x1 PUSH1 0x1 PUSH1 0x60 SHL SUB AND TIMESTAMP PUSH1 0x1 PUSH1 0x1 PUSH1 0x60 SHL SUB AND LT PUSH2 0x34B JUMPI DUP2 PUSH1 0xA0 ADD MLOAD DUP3 PUSH1 0x80 ADD MLOAD PUSH2 0x2B5 SWAP2 SWAP1 PUSH2 0x5BD JUMP JUMPDEST PUSH1 0x80 DUP4 ADD MLOAD PUSH1 0x1 PUSH1 0x1 PUSH1 0x80 SHL SUB SWAP1 DUP2 AND PUSH1 0xA0 DUP6 ADD MSTORE PUSH1 0x40 DUP1 DUP6 ADD MLOAD SWAP1 MLOAD PUSH4 0xA9059CBB PUSH1 0xE0 SHL DUP2 MSTORE CALLER PUSH1 0x4 DUP3 ADD MSTORE SWAP2 DUP4 AND PUSH1 0x24 DUP4 ADD MSTORE SWAP2 SWAP3 POP PUSH1 0x1 PUSH1 0x1 PUSH1 0xA0 SHL SUB SWAP1 SWAP2 AND SWAP1 PUSH4 0xA9059CBB SWAP1 PUSH1 0x44 ADD PUSH1 0x20 PUSH1 0x40 MLOAD DUP1 DUP4 SUB DUP2 PUSH1 0x0 DUP8 GAS CALL ISZERO DUP1 ISZERO PUSH2 0x321 JUMPI RETURNDATASIZE PUSH1 0x0 DUP1 RETURNDATACOPY RETURNDATASIZE PUSH1 0x0 REVERT JUMPDEST POP POP POP POP PUSH1 0x40 MLOAD RETURNDATASIZE PUSH1 0x1F NOT PUSH1 0x1F DUP3 ADD AND DUP3 ADD DUP1 PUSH1 0x40 MSTORE POP DUP2 ADD SWAP1 PUSH2 0x345 SWAP2 SWAP1 PUSH2 0x5E5 JUMP JUMPDEST POP PUSH2 0x435 JUMP JUMPDEST DUP2 PUSH1 0xA0 ADD MLOAD DUP3 PUSH1 0x60 ADD MLOAD PUSH1 0x1 PUSH1 0x1 PUSH1 0x60 SHL SUB AND DUP4 PUSH1 0x20 ADD MLOAD TIMESTAMP PUSH2 0x36E SWAP2 SWAP1 PUSH2 0x60E JUMP JUMPDEST PUSH1 0x1 PUSH1 0x1 PUSH1 0x60 SHL SUB AND DUP5 PUSH1 0x80 ADD MLOAD PUSH2 0x386 SWAP2 SWAP1 PUSH2 0x62E JUMP JUMPDEST PUSH2 0x390 SWAP2 SWAP1 PUSH2 0x65D JUMP JUMPDEST PUSH2 0x39A SWAP2 SWAP1 PUSH2 0x5BD JUMP JUMPDEST SWAP1 POP DUP1 DUP3 PUSH1 0xA0 ADD DUP2 DUP2 MLOAD PUSH2 0x3AE SWAP2 SWAP1 PUSH2 0x691 JUMP JUMPDEST PUSH1 0x1 PUSH1 0x1 PUSH1 0x80 SHL SUB SWAP1 DUP2 AND SWAP1 SWAP2 MSTORE PUSH1 0x40 DUP5 DUP2 ADD MLOAD SWAP1 MLOAD PUSH4 0xA9059CBB PUSH1 0xE0 SHL DUP2 MSTORE CALLER PUSH1 0x4 DUP3 ADD MSTORE SWAP2 DUP5 AND PUSH1 0x24 DUP4 ADD MSTORE PUSH1 0x1 PUSH1 0x1 PUSH1 0xA0 SHL SUB AND SWAP2 POP PUSH4 0xA9059CBB SWAP1 PUSH1 0x44 ADD PUSH1 0x20 PUSH1 0x40 MLOAD DUP1 DUP4 SUB DUP2 PUSH1 0x0 DUP8 GAS CALL ISZERO DUP1 ISZERO PUSH2 0x40F JUMPI RETURNDATASIZE PUSH1 0x0 DUP1 RETURNDATACOPY RETURNDATASIZE PUSH1 0x0 REVERT JUMPDEST POP POP POP POP PUSH1 0x40 MLOAD RETURNDATASIZE PUSH1 0x1F NOT PUSH1 0x1F DUP3 ADD AND DUP3 ADD DUP1 PUSH1 0x40 MSTORE POP DUP2 ADD SWAP1 PUSH2 0x433 SWAP2 SWAP1 PUSH2 0x5E5 JUMP JUMPDEST POP JUMPDEST PUSH1 0x0 DUP4 DUP2 MSTORE PUSH1 0x20 DUP2 DUP2 MSTORE PUSH1 0x40 SWAP2 DUP3 SWAP1 KECCAK256 DUP5 MLOAD DUP6 DUP4 ADD MLOAD PUSH1 0x1 PUSH1 0x1 PUSH1 0x60 SHL SUB SWAP1 DUP2 AND PUSH1 0x1 PUSH1 0xA0 SHL SWAP1 DUP2 MUL PUSH1 0x1 PUSH1 0x1 PUSH1 0xA0 SHL SUB SWAP4 DUP5 AND OR DUP5 SSTORE DUP8 DUP7 ADD MLOAD PUSH1 0x60 DUP10 ADD MLOAD SWAP1 SWAP3 AND MUL SWAP2 AND OR PUSH1 0x1 DUP3 ADD SSTORE PUSH1 0x80 DUP6 ADD MLOAD PUSH1 0xA0 DUP7 ADD MLOAD PUSH1 0x1 PUSH1 0x1 PUSH1 0x80 SHL SUB SWAP1 DUP2 AND PUSH1 0x1 PUSH1 0x80 SHL MUL SWAP2 DUP2 AND SWAP2 SWAP1 SWAP2 OR PUSH1 0x2 SWAP1 SWAP3 ADD SWAP2 SWAP1 SWAP2 SSTORE DUP3 MLOAD CALLER DUP2 MSTORE SWAP1 DUP5 AND SWAP2 DUP2 ADD SWAP2 SWAP1 SWAP2 MSTORE DUP5 SWAP2 PUSH32 0x241657CA70612F8C4D001FF61800ABE5A5FE5BF018509E5FAF24401E717E27A6 SWAP2 ADD PUSH1 0x40 MLOAD DUP1 SWAP2 SUB SWAP1 LOG2 POP POP POP JUMP JUMPDEST DUP1 CALLDATALOAD PUSH1 0x1 PUSH1 0x1 PUSH1 0xA0 SHL SUB DUP2 AND DUP2 EQ PUSH2 0x504 JUMPI PUSH1 0x0 DUP1 REVERT JUMPDEST SWAP2 SWAP1 POP JUMP JUMPDEST PUSH1 0x0 DUP1 PUSH1 0x0 DUP1 PUSH1 0x80 DUP6 DUP8 SUB SLT ISZERO PUSH2 0x51F JUMPI PUSH1 0x0 DUP1 REVERT JUMPDEST PUSH2 0x528 DUP6 PUSH2 0x4ED JUMP JUMPDEST SWAP4 POP PUSH2 0x536 PUSH1 0x20 DUP7 ADD PUSH2 0x4ED JUMP JUMPDEST SWAP4 SWAP7 SWAP4 SWAP6 POP POP POP POP PUSH1 0x40 DUP3 ADD CALLDATALOAD SWAP2 PUSH1 0x60 ADD CALLDATALOAD SWAP1 JUMP JUMPDEST PUSH1 0x0 PUSH1 0x20 DUP3 DUP5 SUB SLT ISZERO PUSH2 0x55D JUMPI PUSH1 0x0 DUP1 REVERT JUMPDEST POP CALLDATALOAD SWAP2 SWAP1 POP JUMP JUMPDEST PUSH4 0x4E487B71 PUSH1 0xE0 SHL PUSH1 0x0 MSTORE PUSH1 0x11 PUSH1 0x4 MSTORE PUSH1 0x24 PUSH1 0x0 REVERT JUMPDEST PUSH1 0x0 DUP3 NOT DUP3 GT ISZERO PUSH2 0x58D JUMPI PUSH2 0x58D PUSH2 0x564 JUMP JUMPDEST POP ADD SWAP1 JUMP JUMPDEST PUSH1 0x0 PUSH1 0x1 PUSH1 0x1 PUSH1 0x60 SHL SUB DUP1 DUP4 AND DUP2 DUP6 AND DUP1 DUP4 SUB DUP3 GT ISZERO PUSH2 0x5B4 JUMPI PUSH2 0x5B4 PUSH2 0x564 JUMP JUMPDEST ADD SWAP5 SWAP4 POP POP POP POP JUMP JUMPDEST PUSH1 0x0 PUSH1 0x1 PUSH1 0x1 PUSH1 0x80 SHL SUB DUP4 DUP2 AND SWAP1 DUP4 AND DUP2 DUP2 LT ISZERO PUSH2 0x5DD JUMPI PUSH2 0x5DD PUSH2 0x564 JUMP JUMPDEST SUB SWAP4 SWAP3 POP POP POP JUMP JUMPDEST PUSH1 0x0 PUSH1 0x20 DUP3 DUP5 SUB SLT ISZERO PUSH2 0x5F7 JUMPI PUSH1 0x0 DUP1 REVERT JUMPDEST DUP2 MLOAD DUP1 ISZERO ISZERO DUP2 EQ PUSH2 0x607 JUMPI PUSH1 0x0 DUP1 REVERT JUMPDEST SWAP4 SWAP3 POP POP POP JUMP JUMPDEST PUSH1 0x0 PUSH1 0x1 PUSH1 0x1 PUSH1 0x60 SHL SUB DUP4 DUP2 AND SWAP1 DUP4 AND DUP2 DUP2 LT ISZERO PUSH2 0x5DD JUMPI PUSH2 0x5DD PUSH2 0x564 JUMP JUMPDEST PUSH1 0x0 PUSH1 0x1 PUSH1 0x1 PUSH1 0x80 SHL SUB DUP1 DUP4 AND DUP2 DUP6 AND DUP2 DUP4 DIV DUP2 GT DUP3 ISZERO ISZERO AND ISZERO PUSH2 0x654 JUMPI PUSH2 0x654 PUSH2 0x564 JUMP JUMPDEST MUL SWAP5 SWAP4 POP POP POP POP JUMP JUMPDEST PUSH1 0x0 PUSH1 0x1 PUSH1 0x1 PUSH1 0x80 SHL SUB DUP1 DUP5 AND DUP1 PUSH2 0x685 JUMPI PUSH4 0x4E487B71 PUSH1 0xE0 SHL PUSH1 0x0 MSTORE PUSH1 0x12 PUSH1 0x4 MSTORE PUSH1 0x24 PUSH1 0x0 REVERT JUMPDEST SWAP3 AND SWAP2 SWAP1 SWAP2 DIV SWAP3 SWAP2 POP POP JUMP JUMPDEST PUSH1 0x0 PUSH1 0x1 PUSH1 0x1 PUSH1 0x80 SHL SUB DUP1 DUP4 AND DUP2 DUP6 AND DUP1 DUP4 SUB DUP3 GT ISZERO PUSH2 0x5B4 JUMPI PUSH2 0x5B4 PUSH2 0x564 JUMP INVALID LOG2 PUSH5 0x6970667358 0x22 SLT KECCAK256 0xD1 EQ 0x29 PUSH1 0xED GT PUSH19 0xE78E92378796D9891E7E962895065AC691E4CA COINBASE EQ BASEFEE DIFFICULTY 0xD2 0xBE PUSH5 0x736F6C6343 STOP ADDMOD SIGNEXTEND STOP CALLER ",
  "sha1": "644d8d420d5aa43ed6864d499487331a79aa378a",
  "source": "pragma solidity 0.8.11;\n\ninterface IERC20 {\n    function transferFrom(\n        address spender,\n        address to,\n        uint256 amount\n    ) external returns (bool);\n\n    function transfer(address to, uint256 amount) external returns (bool);\n\n    function balanceOf(address account) external view returns (uint256);\n}\n\ncontract LinearVestingToken {\n    // Container to hold all data specific to a schedule ID\n    // struct items are packed in such a way that it costs only 3 SLOADS\n    struct Beneficiery {\n        address to;\n        uint96 startTime;\n        address token;\n        uint96 duration;\n        uint128 totalAmount;\n        uint128 alreadyClaimed;\n    }\n    mapping(uint256 => Beneficiery) schedules;\n    // Schedule Id\n    uint256 public scheduleId;\n\n    /////////////// Custom Errors ////////\n    // They are used instead of require() statements because of deploy and runtime gas efficiency\n    // error MinterHasInsufficientBalance();\n    error RecipientAddressNotValid();\n    error RedeemerNotAuthorized();\n\n    /////////////// Events ///////////////\n    event NewVestingScheduleCreated(\n        address indexed _tokenAddress,\n        address _beneficiery,\n        uint256 _amount,\n        uint256 _duration,\n        uint256 _scheduleId\n    );\n\n    event BeneficieryRedeemedTokens(\n        uint256 indexed _scheduleId,\n        address _beneficiery,\n        uint256 _amount\n    );\n\n    /////////////// Logic ////////////////\n\n    ///@notice function to create a linear vesting schedule\n    ///@param tokenAddress The address of the token to be vesting,e.g., DAI\n    ///@param to The beneficiery of the vested tokens\n    ///@param amount The total amount of tokens to be vested\n    ///@param duration The total duration of the vesting schedule\n    ///@return scheduleId The unique Id of a vesting schedule\n    function mint(\n        address tokenAddress,\n        address to,\n        uint256 amount,\n        uint256 duration\n    ) public returns (uint256) {\n        // NOTE: The function assumes that minter has already transfered `amount` of tokens to this contract\n\n        // address(0) cannot redeem tokens\n        if (to == address(0)) revert RecipientAddressNotValid();\n\n        uint256 _scheduleId = scheduleId; // caching for saving on SLOADs\n        // creating a mapping\n        schedules[_scheduleId] = Beneficiery(\n            to,\n            uint96(block.timestamp),\n            tokenAddress,\n            uint96(duration),\n            uint128(amount),\n            uint128(0)\n        );\n\n        // emit the event\n        emit NewVestingScheduleCreated(\n            tokenAddress,\n            to,\n            amount,\n            duration,\n            _scheduleId\n        );\n        scheduleId = _scheduleId + 1;\n        return _scheduleId;\n    }\n\n    function redeem(uint256 _scheduleId) external {\n        Beneficiery memory _beneficiary = schedules[_scheduleId]; // caching for saving on SLOADS\n\n        if (msg.sender != _beneficiary.to) revert RedeemerNotAuthorized();\n\n        uint128 _amountToRedeem;\n        if (\n            uint96(block.timestamp) >=\n            _beneficiary.startTime + _beneficiary.duration\n        ) {\n            _amountToRedeem =\n                _beneficiary.totalAmount -\n                _beneficiary.alreadyClaimed;\n            _beneficiary.alreadyClaimed = _beneficiary.totalAmount;\n            IERC20(_beneficiary.token).transfer(\n                msg.sender,\n                uint256(_amountToRedeem)\n            );\n        } else {\n            // Compute the amount of tokens that can be redeemed: totalUnlocked - alreadyClaimed\n            _amountToRedeem =\n                ((_beneficiary.totalAmount *\n                    uint128(\n                        (uint96(block.timestamp) - _beneficiary.startTime)\n                    )) / uint128(_beneficiary.duration)) -\n                _beneficiary.alreadyClaimed;\n            // Update the amount claimed so far\n            _beneficiary.alreadyClaimed += _amountToRedeem;\n            // Transfer the redeemed amount of tokens to the beneficiary\n            IERC20(_beneficiary.token).transfer(\n                msg.sender,\n                uint256(_amountToRedeem)\n            );\n        }\n        // Update the information related to the scheduleId in the persistent storage\n        schedules[_scheduleId] = _beneficiary;\n        // emit the event\n        emit BeneficieryRedeemedTokens(\n            _scheduleId,\n            msg.sender,\n            uint256(_amountToRedeem)\n        );\n    }\n}\n",
  "sourcePath": "contracts/LinearVestingToken.sol",
  "type": "contract"
}